:020000040000fa
:080000000002040000000000f2
:020000040000fa
:040008005e03000093
:020000040000fa
:04000c00dc02000012
:020000040000fa
:040010001e030000cb
:020000040000fa
:04001400fc020000ea
:020000040000fa
:040018003e030000a3
:020000040000fa
:04001c005e0300007f
:020000040000fa
:040020005e0300007b
:020000040000fa
:040024005e03000077
:020000040000fa
:040028005e03000073
:020000040000fa
:04002c005e0300006f
:020000040000fa
:040030005e0300006b
:020000040000fa
:040034005e03000067
:020000040000fa
:040038005e03000063
:020000040000fa
:04003c005e0300005f
:020000040000fa
:040040005e0300005b
:020000040000fa
:040044005e03000057
:020000040000fa
:040048005e03000053
:020000040000fa
:04004c005e0300004f
:020000040000fa
:040050005e0300004b
:020000040000fa
:040054005e03000047
:020000040000fa
:040058005e03000043
:020000040000fa
:04005c005e0300003f
:020000040000fa
:040060005e0300003b
:020000040000fa
:040064005e03000037
:020000040000fa
:040068005e03000033
:020000040000fa
:04006c005e0300002f
:020000040000fa
:040070005e0300002b
:020000040000fa
:040074005e03000027
:020000040000fa
:040078005e03000023
:020000040000fa
:04007c005e0300001f
:020000040000fa
:040080005e0300001b
:020000040000fa
:040084005e03000017
:020000040000fa
:040088005e03000013
:020000040000fa
:04008c005e0300000f
:020000040000fa
:040090005e0300000b
:020000040000fa
:040094005e03000007
:020000040000fa
:040098005e03000003
:020000040000fa
:04009c005e030000ff
:020000040000fa
:0400a0005e030000fb
:020000040000fa
:0400a4005e030000f7
:020000040000fa
:0400a8005e030000f3
:020000040000fa
:0400ac005e030000ef
:020000040000fa
:0400b0005e030000eb
:020000040000fa
:0400b4005e030000e7
:020000040000fa
:0400b8005e030000e3
:020000040000fa
:0400bc005e030000df
:020000040000fa
:0400c0005e030000db
:020000040000fa
:0400c4005e030000d7
:020000040000fa
:0400c8005e030000d3
:020000040000fa
:0400cc005e030000cf
:020000040000fa
:0400d0005e030000cb
:020000040000fa
:0400d4005e030000c7
:020000040000fa
:0400d8005e030000c3
:020000040000fa
:0400dc005e030000bf
:020000040000fa
:0400e0005e030000bb
:020000040000fa
:0400e4005e030000b7
:020000040000fa
:0400e8005e030000b3
:020000040000fa
:0400ec005e030000af
:020000040000fa
:0400f0005e030000ab
:020000040000fa
:0400f4005e030000a7
:020000040000fa
:0400f8005e030000a3
:020000040000fa
:0400fc005e0300009f
:020000040000fa
:040100005e0300009a
:020000040000fa
:040104005e03000096
:020000040000fa
:040108005e03000092
:020000040000fa
:04010c005e0300008e
:020000040000fa
:040110005e0300008a
:020000040000fa
:040114005e03000086
:020000040000fa
:040118005e03000082
:020000040000fa
:04011c005e0300007e
:020000040000fa
:040120005e0300007a
:020000040000fa
:040124005e03000076
:020000040000fa
:040128005e03000072
:020000040000fa
:04012c005e0300006e
:020000040000fa
:040130005e0300006a
:020000040000fa
:040134005e03000066
:020000040000fa
:040208005e03000091
:020000040000fa
:04020c00dc02000010
:020000040000fa
:040210001e030000c9
:020000040000fa
:04021400fc020000e8
:020000040000fa
:040218003e030000a1
:020000040000fa
:04021c005e0300007d
:020000040000fa
:040220005e03000079
:020000040000fa
:040224005e03000075
:020000040000fa
:040228005e03000071
:020000040000fa
:04022c005e0300006d
:020000040000fa
:040230005e03000069
:020000040000fa
:040234005e03000065
:020000040000fa
:040238005e03000061
:020000040000fa
:04023c005e0300005d
:020000040000fa
:040240005e03000059
:020000040000fa
:040244005e03000055
:020000040000fa
:040248005e03000051
:020000040000fa
:04024c005e0300004d
:020000040000fa
:040250005e03000049
:020000040000fa
:040254005e03000045
:020000040000fa
:040258005e03000041
:020000040000fa
:04025c005e0300003d
:020000040000fa
:040260005e03000039
:020000040000fa
:040264005e03000035
:020000040000fa
:040268005e03000031
:020000040000fa
:04026c005e0300002d
:020000040000fa
:040270005e03000029
:020000040000fa
:040274005e03000025
:020000040000fa
:040278005e03000021
:020000040000fa
:04027c005e0300001d
:020000040000fa
:040280005e03000019
:020000040000fa
:040284005e03000015
:020000040000fa
:040288005e03000011
:020000040000fa
:04028c005e0300000d
:020000040000fa
:040290005e03000009
:020000040000fa
:040294005e03000005
:020000040000fa
:040298005e03000001
:020000040000fa
:04029c005e030000fd
:020000040000fa
:0402a0005e030000f9
:020000040000fa
:0402a4005e030000f5
:020000040000fa
:0402a8005e030000f1
:020000040000fa
:0402ac005e030000ed
:020000040000fa
:0402b0005e030000e9
:020000040000fa
:0402b4005e030000e5
:020000040000fa
:0402b8005e030000e1
:020000040000fa
:0402bc005e030000dd
:020000040000fa
:0402c0005e030000d9
:020000040000fa
:0402c4005e030000d5
:020000040000fa
:0402c8005e030000d1
:020000040000fa
:0402cc005e030000cd
:020000040000fa
:0402d0005e030000c9
:020000040000fa
:0402d4005e030000c5
:020000040000fa
:0402d8005e030000c1
:020000040000fa
:0402dc005e030000bd
:020000040000fa
:0402e0005e030000b9
:020000040000fa
:0402e4005e030000b5
:020000040000fa
:0402e8005e030000b1
:020000040000fa
:0402ec005e030000ad
:020000040000fa
:0402f0005e030000a9
:020000040000fa
:0402f4005e030000a5
:020000040000fa
:0402f8005e030000a1
:020000040000fa
:0402fc005e0300009d
:020000040000fa
:040300005e03000098
:020000040000fa
:040304005e03000094
:020000040000fa
:040308005e03000090
:020000040000fa
:04030c005e0300008c
:020000040000fa
:040310005e03000088
:020000040000fa
:040314005e03000084
:020000040000fa
:040318005e03000080
:020000040000fa
:04031c005e0300007c
:020000040000fa
:040320005e03000078
:020000040000fa
:040324005e03000074
:020000040000fa
:040328005e03000070
:020000040000fa
:04032c005e0300006c
:020000040000fa
:040330005e03000068
:020000040000fa
:040334005e03000064
:020000040000fa
:100400002f8f20000e7f22000e01880000000000c8
:10041000000020000000e000020032000001200087
:1004200020028800140007001b0107000000e00004
:1004300003003a00e06821000100200002003700bc
:100440000000200001002000810f70000100320038
:1004500014000700000020000000e000020032004d
:100460000000020000000000d4150200000000009f
:100470000040da000000fe004440a900e000200037
:100480000000e0000300320000002000a00188000e
:100490004440a800000006008a1f78008b1f7800e7
:1004a0000000060091018800800478000000eb0045
:1004b0001a003700e284440032a0b4009905ba0063
:1004c000e284440032a0b4009906ba00e2844400f9
:1004d00032a0b4000006eb00476fde00fd07b2005b
:1004e000636ce10003003a00ebff07000000eb0043
:1004f0000a003700606ce10004003a00005deb0088
:100500008b05e900fdff3e00040037006168e10053
:10051000010032000086eb000b00070019c7ba008b
:100520001905ba000e04e00003003a000a00e000da
:10053000e0ff3a0000000600fe07b2009e018800be
:100540008a047800f5ff3700395dba008b05e900b1
:100550000c003200295dba008b05e900080032006a
:100560000c00e00003003a00e284440032a0b40032
:10057000f5ff370019ddba008b05e900faff3a00f4
:100580008904e800e184440032a0b40000000600c1
:1005900062040400000000007c040400000000006d
:1005a000aa040400000000002a0f0400000000005c
:1005b00000000400000000003600f800809fbe002c
:1005c000829fbe00849fbe00869fbe000000fa008e
:1005d0008020a9000000eb006f0a07000080fa00ed
:1005e0004f03be004f02be004f01be004f00be00d1
:1005f0003600f900004006003600f800809fbe007b
:10060000829fbe00849fbe00869fbe000000fa004d
:10061000660a07008040a900100020005e0a07005b
:100620000080fa004f03be004f02be004f01be0023
:100630004f00be003600f900004006003600f8000a
:10064000809fbe00829fbe00849fbe00869fbe002a
:100650000000fa008060a900200020004e0a070078
:100660000080fa004f03be004f02be004f01be00e3
:100670004f00be003600f900004006003600f800ca
:10068000809fbe00829fbe00849fbe00869fbe00ea
:100690000000fa008080a900300020003e0a070018
:1006a0000080fa004f03be004f02be004f01be00a3
:1006b0004f00be003600f900004006000040da009e
:1006c0000000fe000a00fa0011002000b1bf9f00e8
:1006d000c0bf9f006a805700930607004fb897007d
:1006e0000080fa00000006000a00fa00e20f500045
:1006f00034003e0070478000e10f500003003200dc
:10070000e20f500011003a000c00370003222000d5
:100710000300e00001003a000040da002002e2009d
:10072000020035002822ef0021e2a8002342ab009e
:100730000d003a002342a8000b00370003232000dd
:100740000300e00001003a000040da003002e2005d
:10075000020035003822ef0031e2a8003342ab003e
:1007600001003a003342a800820178000b003700f4
:100770003102fb00e10f500004003a002322ab00dd
:10078000feff3a0024118800030037003322ab003b
:10079000feff3a00a41188008301e9000300e00095
:1007a000f3ff3a00e10f500003003a002302ab00d0
:1007b000feff32000b0037003302ab00feff3200b9
:1007c0000800370033002000b3bf9f00c0bf9f0068
:1007d000d1bf9f00e2bf9f006a8057005406070008
:1007e0006fb99700020078000080fa000000060050
:1007f0000a00fa0051002000b1bf9f00c0bf9f0057
:100800006a8057004c0607005fb897000080fa0026
:1008100000000600889fbe008004780080478000aa
:100820000000e00004003a000e0007000084eb0026
:100830000000e00008003500884780000900e00063
:100840000500320009004400060007000000e00037
:1008500001003d000084eb00080078004f04be005a
:1008600000000600800078000100e00003003a006c
:100870000000200080478800000005000080eb0099
:1008800002002000828f500002003e008147880055
:100890000000eb00000006000000050000017800e9
:1008a000820178003204e000fdff3a000301780085
:1008b000b1417800035978000304e000fcff3a00de
:1008c00000000600889fbe00800478000203be007e
:1008d000010478006149b800898fd2008381d20079
:1008e000080278000600be001506070008804400d4
:1008f0004f04be0000000600881f78000204780044
:1009000008017800e2000700080040004f0478006a
:10091000000006000000fa00881f7800000478003c
:100920006a825700bfb9970008017800214620006d
:10093000c0472000160007000000e000020035005c
:100940008040eb00017478004f0478000080fa00ca
:1009500000000600889fbe00000478000203be006d
:1009600081047800080278008901780012002000d4
:100970000600be00b5010700890f500001003200db
:100980000004eb00080078004f04be0000000600e1
:100990006800fa00889fbe008a9fbe00800478002d
:1009a000010478008205780003057800840078004f
:1009b00000f92f000f004000a2010700d98f9f000f
:1009c000fb8f9f000000eb00a09f9f00e88f9f001f
:1009d0009a84fb000904fb008904ea00cf4cde0086
:1009e00050022000800f54000d003200e18f5400af
:1009f0000b003a00090178008a0078007f88970090
:100a0000df89970003000100f08f9f000000e000e5
:100a1000950032002f9897000000e800a09f9f00eb
:100a20000905450050022000800f540004003200e8
:100a30000800e000e6ff3a002f9897008b0037008f
:100a40000000eb00809f9f00f0979f00e0979f00c1
:100a5000d0979f00c0979f00b0979f000700370076
:100a6000018e20000100500000004000418d200058
:100a700061007800cf98970001007000c09f9f0030
:100a80000a04780008057800ba4478008900fb0061
:100a9000008e2000850007000000e000f0ff3a0013
:100aa000a1c2b30081cf54000e003a008f88970096
:100ab0000180e900808f9f0010007800b09f9f00a8
:100ac0000000e00005003d000000ea00b09f9f002c
:100ad0004f9897000020a000c09f9f000804e800e6
:100ae00010003700b09f9f00880078000000eb00e6
:100af00005003700f3ff2700830f5000020032008b
:100b00006a02b900040041000104780088007800fe
:100b10003101fb000203b100e90f5100f5ff36007f
:100b2000b09f9f00e0c2b300984f10000200320057
:100b30000080eb0019003700a0c2b300d84f1000ae
:100b400007003a008f8897000180e900808f9f009e
:100b500010007800909f9f000804e8001000370004
:100b60000000eb00909f9f00880078000500370090
:100b7000f3ff2700830f5000020032006a02b90021
:100b80000400410001047800880078003101fb0076
:100b90000203b100e90f5100f5ff3600909f9f005e
:100ba000984478008900fb00c08c20003f000700bb
:100bb0000000e000020032000804e80001003700f5
:100bc0008044eb00a97f9f0080c6b30080cf540013
:100bd00006003a0098cf140010003a00664050001a
:100be000a07f9f000804e8000c003700c0c6b300d7
:100bf00080cf540009003a0098cf140007003a0053
:100c000067404000d84f100002003a006e4050008c
:100c10000100370010c7b300a07f9f001801fb0040
:100c2000c3fb2f008f81410001f92f008f8040000e
:100c300020f92f000f004000ab0107000000e0008a
:100c400009003a00c1fb2f008f80400020f92f00df
:100c50000f004000210007000000e0000200350006
:100c60000805e8005aff37000080eb004f05be0082
:100c70004f04be000080fa00000006000302780066
:100c80008201780001017800a14a200040ff37006e
:100c90008001780002003700b15978000201e900b4
:100ca0000200e000fcff3a000000060002003700ee
:100cb0000304e00006003200000178000200780022
:100cc000b041780081cf5100f9ff3a0001003700b0
:100cd0000001eb0002007800000006000400fa00aa
:100ce000889fbe008a9fbe008c1f78000004780099
:100cf00001067800a8149000280890008084540011
:100d00003808900080845400480890008084540083
:100d10005808900080845400680890008084540033
:100d200078089000808454000002220090bf9f0049
:100d300000032300a0bf9f00381090000028a300ec
:100d400015003a000900e00013003400090578009e
:100d50008a057800e20f5500010036002b002000c4
:100d6000c80190000b017800ee80570068009000e9
:100d700003000100600498000000e000aa003200b7
:100d8000181090000b004000101498000b0555003f
:100d90004240a900eeff3c00280990000200e0005c
:100da0000c003400c80190008c00780068009000ae
:100db00003000100600498008080eb000000e00068
:100dc0009a0032009810900028089000008040009f
:100dd00010149800380d90000a00e0001100340053
:100de0008a057800e20f5500010036002b00200034
:100df000c80190000b017800ec805700680090005b
:100e000003000100600498000000e000860032004a
:100e1000181090000b004000101498000b055500ae
:100e2000edff370008699000c808900050c6b30075
:100e3000804f510008003a000100e0001500340026
:100e400058029000080990009809900068009000ee
:100e500004000100070037000100e0000d0034002d
:100e6000c801900001017800f8009000680090002f
:100e700003000100600498008080eb000000e000a7
:100e80006a003200981090004808900000804000ee
:100e900010149800580d90000a00e0001100340072
:100ea0008a057800e20f5500010036002b00200073
:100eb000c80190000b017800ec805700680090009a
:100ec00003000100600498000000e00056003200ba
:100ed000181090000b004000101498000b055500ee
:100ee000edff3700086990006808900051c6b30014
:100ef000814f51000d003a000000e0001c0034005a
:100f000078019000c8089000010141006111b8000b
:100f1000828fd2008381d200580290008000780036
:100f20006800900004000100090037000000e000a4
:100f30000f00340078019000c80890008100410043
:100f4000c8019000000178006800900003000100d3
:100f5000600498008080eb000000e0003300320065
:100f600098109000680890000080400010149800cd
:100f7000780d90000a00e000110034008a05780026
:100f8000e20f5500010036002b002000c801900040
:100f90000b017800ec80570068009000030001000e
:100fa000600498000000e0001f003200181090005c
:100fb0000b004000101498000b055500edff3700a2
:100fc000381090008000eb000028a30017003200ca
:100fd0000900e0001500340009057800e28f540094
:100fe000010036002a002000c80190000a017800a4
:100ff000ee80570068009000030001006004980034
:101000000000e00008003200181090000a004000c4
:10101000101498008a8454004240a900eeff3c005e
:101020008000eb00010037008080eb0001007800b9
:101030004f0678004f05be004f04be000080fa0046
:10104000000006000108780000000600e68747005f
:10105000889fbe008a9fbe008c9fbe008e1f7800b6
:1010600082bf9f0004047800029ab900f4b79f0081
:101070000400e000590032000fb997000200e000c0
:10108000570032000006be0004077800c800900038
:1010900068009000808f500004003900080078003c
:1010a000a30107000000e0003b00350000402000e5
:1010b000180060000a0032008e017800a2002000b3
:1010c0000c00be003b0407000005be000080750058
:1010d000070032008c0455008904e8000500370041
:1010e0008e0478000a0020000b0020000100370069
:1010f0008e047800480190006800900002005000c3
:10110000890f500003003100800478000a0020009d
:101110000b0020006111b800828fd2008381d200c1
:10112000090278000c00be000504070009075700fb
:101130004800900009004000400498000a857500ae
:1011400004003200080078002c0007000000e000d6
:1011500011003a000e00e0000f0032006148b800b4
:10116000808fd2008180d2000000780000f0a100c2
:101170008c01d0000001d000028641004220a8006e
:1011800081864e004200a9004220ae004200a80025
:101190000c86d300bdff37000080200018006000df
:1011a00002003200080078001400070000c0200090
:1011b0001800600002003200c8019000630498002b
:1011c0007fb097000e0750000fb99700110009007b
:1011d0000287d80080017800010037008001eb0011
:1011e000030078004f0778004f06be004f05be0091
:1011f0004f04be006f00b10000000600889fbe00d3
:10120000000478000800e0000f003a008004eb00c2
:10121000090478008800d000a087200061007800d1
:101220000000e00004003200f4ff07000000e000ce
:1012300001003d008084eb000804e800e80f540042
:10124000f4ff3a002500370000002200180060007b
:101250008004eb0021003200a80490000f0037004a
:1012600009015100384090000000fb00890078001f
:101270001dfd07000000e00007003c002800900072
:101280004004980060049800500c98001890a0004a
:101290008084eb00110037008084440048019000f6
:1012a000828f5400eeff390028009000400498001f
:1012b0009800780002c020000281600001003a001e
:1012c0003800900001e8a30002003200600498009a
:1012d00001003700500c98008004eb0009007800f2
:1012e0004f04be0000000600889fbe008a9fbe001b
:1012f000e4c6b300844f5100be00320010003c0031
:101300006b425200844f51001800320005003c002f
:1013100054c2b300844f5100f600320084c5b300bc
:101320000f00370044c6b300844f51001400320050
:1013300065424200844f5100f1003a00100037002e
:1013400004c7b300844f5100dd0032005600350061
:1013500065424200844f5100530032006342420014
:10136000844f5100e6003a004f0037001181e90038
:1013700082087800a008900012417800de00370053
:10138000006a9000c5c6b300854f520007003a00be
:101390009102780064825200840878001402be0032
:1013a0004fabde00860378001400370015c7b3008a
:1013b000854f520003003a0011047800680254007f
:1013c00005003700a5c6b300854f520006003a005d
:1013d0009104780068825400840878005403be00a9
:1013e0004402be00050037001182e900840878003d
:1013f00014027800cfa2de00612bb9000498be0071
:101400000690be008068900088c6b30088cf500068
:101410000d00320028c6b30088cf500004003a0007
:101420000402fb00cfa2de00612bb90008003700e8
:1014300048c7b30088cf5000030032006644440020
:1014400088cf500004003a00cfa2de00612bb90023
:101450000498be000690be003002be002003be000d
:10146000a0089000e00f5200e08f5a00e00f5b00f0
:10147000e08f5b0002003d00d4c2b30008003700db
:10148000301290000418a30002003200b4c2b3006e
:10149000030037000408a3005100320004c2b30067
:1014a00084f178004c003700006a9000c5c6b30094
:1014b000854f520008003a0011057800640255007b
:1014c000840878001404be006055b8000802be000d
:1014d0000a03be001400370015c7b300854f520041
:1014e00003003a0091047800688254000500370038
:1014f000a5c6b300854f520006003a0011057800da
:1015000068025500840878005403be004402be00ff
:10151000050037001182e900840878001402780081
:101520008002eb006033b8000498be000690be0055
:101530008068900088c6b30088cf50000d0032004c
:1015400028c6b30088cf500004003a000482fb0094
:101550008002eb006033b8000800370048c7b300d2
:1015600088cf5000030032006644440088cf50000a
:1015700004003a008002eb006033b8000498be001b
:101580000690be00b01090000138a3001400320095
:101590003002be002003be00e00f5200e08f5a0070
:1015a000e00f5b00e08f5b000d00320081c7b300ed
:1015b000814f51000300320081c5b300814f5100bb
:1015c00007003a00a008900004c3b30084f178003b
:1015d0008100e80082f178008100e800210898008d
:1015e000a00890008181410073009800824078003b
:1015f0003e00370080699000c4c6b3001181e90045
:1016000084cf5100220032000a003c0064425200a4
:1016100084cf51002500320004c2e80084cf51007d
:10162000130032006842520084cf51001e003a007d
:101630000a00370044c7b30084cf51001b003200ba
:101640006642420084cf51001800320069425200c5
:1016500084cf510014003a0005003700820878005a
:101660009200780020609000804878002c003700bd
:10167000820878009200780010129000cfa2de005d
:10168000612bb9008498be008690be00240037000c
:10169000820878009200780010119000cf91de004f
:1016a0008288be001e0037001181e90082087800a0
:1016b0009200780010109000800878001800370021
:1016c0001181e9008208780012027800cfa2de00c2
:1016d000612bb9000498be000690be00a0089000df
:1016e000818141007300980081c7b3005700070053
:1016f0000b003700a008900082f178000600370048
:10170000a0089000818141000204e00001003a003d
:1017100052c2b300824978008100e8002108980095
:101720000000eb004f05be004f04be0000000600a5
:10173000889fbe008a1f780000047800c8009000cf
:10174000680190000000eb00828f50003c003900df
:10175000180078002200290002016000e20f510009
:1017600007003200012020000000e00001003500e9
:1017700001202400008c70000080eb003000370056
:101780000200260002006000820f500009003a00ab
:1017900038009000808f5000060039000800780063
:1017a00096fe0700800078000080eb000100e0005a
:1017b00023003a001805780000c0200000006500f2
:1017c00018003a00a80490006002200008004000c1
:1017d000808f540013003a00002020001e020700f2
:1017e000200498000000e00005003a002904980059
:1017f000490498008904e80039049800080037007b
:101800000a60a0000a0c7800400498000120200023
:101810008080400031049800400c9800500c9800e3
:101820003b01070028009000500498003800900009
:101830006004980000002600180c70000000eb0007
:101840004f0578004f04be0000000600fc874700eb
:10185000889fbe008a9fbe008c9fbe008e1f7800ae
:101860000006780080c5b30080cf50000a00320027
:101870007740400080cf50000a00320069404000ad
:1018800080cf50000b003200b089200080bf9f0045
:10189000ae0020000a003700a288200082bf9f000f
:1018a00006003700b389200083bf9f008e00200010
:1018b00003003700b489200084bf9f000e01200080
:1018c0003c02be002c03be000605be000404be00a0
:1018d00040c6b30080cf5000030032006540400096
:1018e00080cf50000b003a00e00f5200e08f5a000a
:1018f000e00f5b00e08f5b0006003d006000b80079
:101900006011b80004045000858458000605590091
:1019100087855900e80f570004003200400020007e
:10192000f00f570038003a00010037003000200067
:10193000e00f5400e08f5c00e00f5d00e08f5d0081
:1019400004003a008c1090008d0120000100e0009e
:10195000060032008e00e900888060008fba970090
:10196000e5c07800f1ef9f007d0120008000780045
:101970008100e900050033008b05d1000a85d30002
:101980008984d3000884d300f9ff3700089ebe0085
:101990000a96be00120037008d06e9008e00e900ad
:1019a000848060000fb99700e2c1780082fd2f00ab
:1019b0000f01410003f17e00800078008100e90002
:1019c000050033008783d1000683d3008582d300ce
:1019d0000482d300f9ff3700049ebe000696be00c5
:1019e0003c02be002c03be00e00f5200e08f5a0004
:1019f000e00f5b00e08f5b008b0034000d00e00027
:101a0000e5ff3c00880037000c68900081c6b300f9
:101a1000814f50000b00320006003c000004e00043
:101a200008003200e6c05000814f50004e003a00de
:101a300004003700c1c6b300814f50004a003a008d
:101a4000210037000800e00004003a000c1090006c
:101a50008d0120000000e0000600320011000900a6
:101a60000e84d8000fb99700e2c07800f1ef9f0014
:101a70007d012000110009000e84d8000a00370003
:101a8000110009000e04d8008d06e9000e81b9008e
:101a9000020454008fb8970061417c0081fd2f0043
:101aa0008f80400082f07e00000478000800e00093
:101ab000020032000d00e000f1ff3c00cfc4de0068
:101ac000614db90025003700e00f5400e08f5c0045
:101ad00004003a000c1090008d0120000000e0008e
:101ae000070032006171b9000800be00eb01070079
:101af0008fb99700e3417800f3ef9f007d0120004c
:101b00006171b9000800be00d40107000b00370066
:101b10006171b9000800be00c10107008d06e9002f
:101b200000f1b900020454000fba9700e4427c00af
:101b300084fd2f000f02420005f27e000004be006b
:101b4000e00f5000e08f5800020032000d00e0006e
:101b5000efff3c004fcdde008a057800089ebe00f6
:101b60000a96be0030003700e00f5400e08f5c00a2
:101b7000e00f5d00e08f5d0004003a000c10900063
:101b80008d0120000000e000090032006172b90000
:101b9000612bb9000800be000a01be006802070000
:101ba0000fba970064427800f4ef9f007d01200097
:101bb0006172b900612bb9000800be000a01be00c5
:101bc000580207000d0037006172b900612bb9009f
:101bd0000800be000a01be005d0207008d06e90094
:101be00000f2b900040454008fba970065427c00eb
:101bf00085fd2f008f82420084f27e00009ebe0091
:101c00000296be003c04be002c05be00e00f54004e
:101c1000e08f5c00e00f5d00e08f5d0002003400ab
:101c20000d00e000e8ff3c00e80f570010003a000c
:101c30003c1090000038a3000d003200f78f5600d2
:101c400006003e0085fd2f008f824200e5c07e0029
:101c500000c3b30080cf5000050032008d06e900bc
:101c600002c3b30081fd2f008f80400082f07e0010
:101c700078811600420e98007c00900083fd2f00b2
:101c80008f8141008d80410001fc07004c089000cd
:101c90008c109000810f500006003d000080500025
:101ca000300e98003c1090000040a10030169800c3
:101cb0000f0037000100e0000d003d00bc10900057
:101cc000f4806000f08f500009003a002c11900061
:101cd000ac089000810051003c09900082805000c7
:101ce000008050004240a90001003400300e9800ee
:101cf0004f0778004f06be004f05be004f04be00e0
:101d0000cf01b10000000600a0f220006100370002
:101d1000881f7800a88e20001804e00003003a0015
:101d2000f9ff070020c0b300004c78004f04780092
:101d300000000600889fbe000004780008007800bc
:101d40002efd0700800478000004200018006000c9
:101d500002003200280090005a0007000000eb004b
:101d600020049800384090000004e0000500350091
:101d70000000fb0053fa07000000e0000100320001
:101d80008084eb00181090000000e0000800320092
:101d900097fa07000000e000010032008084eb00a9
:101da00018109000470007000000eb001014980086
:101db0000008200018006000150032000001eb0050
:101dc0006000b800a38720000202d00063027a00fe
:101dd000880f520005003a00000040008180480052
:101de000008041000008eb00060037006100400061
:101df000e08048000201e800e80f5000e08f580042
:101e0000f0ff3a00080078002e0007000e003700af
:101e1000000c780000c0eb00304498006002200005
:101e200008004000200498004004980050049800e6
:101e3000400c980060049800500c980070049800c2
:101e400076004400000c9800090078004f04be00a2
:101e500000000600881f78000004eb006140b80015
:101e6000e2ff2f00f3ff2f000f0107008288200000
:101e7000620078000000e00001003200adff0700c2
:101e80000804e800e80f5400f4ff3a004f0478001b
:101e900000000600010020000100e0000800320000
:101ea000010080000100e000050032008100e9002f
:101eb000010088008100d0000200800000b178009d
:101ec000000006000000e0002f003200c001780092
:101ed000e38f51002c0036000308a3002a003a00cb
:101ee000414780000100e00002003200810f5000f5
:101ef00004003100110098004047880016003700a8
:101f000082007800110190000200e000020032001f
:101f1000800f5100faff39001102780084824000de
:101f2000850f500018003900808f520003003a00de
:101f30008308420001007800070037000200e0003b
:101f40000300320083014000830f51000e0039006e
:101f50001200980090009800900090000100e000ae
:101f60000900320010014000828f500006003a0044
:101f7000628e20000009eb0010017800110841007a
:101f8000910090001100980000000600889fbe009c
:101f900000047800314780000100e00002003200b8
:101fa000010078000d00370041478000808e20003e
:101fb00004003700910f5400250036000180e8002e
:101fc000910090000100e000faff3a001000370095
:101fd000920f54001e0036000280e80010017800c5
:101fe0000200e000faff3a0011017800414780004a
:101ff000808e200004003700910f5400140036003a
:102000000180e80091009000828f5000faff3a00b2
:1020100069478000888f54000100310088047800ef
:1020200009007800360007000000e00004003a00d4
:10203000888f5400050032008904d100f5ff370075
:10204000091878009fff0700d2ff37000000eb005f
:102050004f04be0000000600881f780063044000a3
:102060000800a1008000eb00800f54002100360022
:10207000e30f540001003e004800200008007800f3
:10208000c2ff07008000eb000000e00019003200f2
:10209000900078009101780064815100880f510010
:1020a000030031001101900002087800070037009a
:1020b0000881400002087800910190001301980007
:1020c00010017800110914008808780010017800c8
:1020d0000000eb000200e0000400320092019000da
:1020e0000300e000010032000280e8003047880071
:1020f0008180e800010078004f04780000000600ad
:10210000800078000000eb000100e00005003400d2
:1021100001007800bff90700e10f400001003a001c
:102120000000eb000000060000c0da00000006001e
:1021300000c0da000000060000c0da00000006005f
:102140003400f8000203be008202700085027200b3
:1021500002f0a60000f0a6008100e800a1018800be
:102160001500b20008003200105978000402e9009e
:102170000d00320061004000fbff39003420ec000c
:1021800000002800f8ff3700101978000482e900e9
:102190000500320062004000fbff39003420ec00f3
:1021a00000002800f8ff37003400f9000601be00e7
:1021b000000006000300e00007003200a5018000d7
:1021c000a101880010427800a50188000402fb00ec
:1021d000820f5200110032008301e900a501800046
:1021e000a101880010427800a50188000404e000e5
:1021f00008003200000278001000b00000026a00ff
:102200004260af0000f0a0000482d2000180b00064
:10221000e8ff370000002000010020000000060059
:10222000839f68000100e00002003d006000100094
:10223000e08018000300e00002003d006001110092
:10224000e0811900050007004f00e00002003b009c
:1022500060001000e0801800000006006022b80056
:10226000060220000000d0008180d2000482d2004b
:102270008582d2000000a0000202520083825a0030
:10228000030031000202420083824a000000a100e4
:102290000603e900f3ff3a0000000600efff070025
:1022a0000400be0000000600020ab900001bb900cd
:1022b0000200b800810042008100430000000600d7
:1022c000889fbe008a9fbe0030044200b0844a004e
:1022d00030054b0090854b006000b1000898be00af
:1022e0000a90be000440e10005c8e10006d0e1000c
:1022f00007d8e10002003100680040001008e80043
:102300004f05be004f04be0000000600889fbe00bf
:102310008a9fbe003004be002005be000418540091
:1023200005985c0006185d0007985d00110020000c
:102330000440e10005c8e10006d0e10007d8e10053
:10234000010039008000eb00108810004f05be002e
:102350004f04be00000006001200fa00889fbe0075
:102360008a9fbe008c9fbe00e0b79f00f1b79f0020
:1023700082bf9f0093bf9f000605be000404be00fd
:102380000000eb00d0b79f00c0b79f00b0b79f0020
:10239000a0b79f0090b79f00000678005fb197003c
:1023a000cfb09700820141003fb097000200e000eb
:1023b00004003d00370007007e805700c0ff070083
:1023c00003003700330007007e805700cfff07006f
:1023d000dfb697000d00e0000c0035006fb29700eb
:1023e000ffb297000fbb97009fbb97001000200023
:1023f000010020006011b8000002720081827200aa
:1024000002037300838373001b0007000c06e800bf
:1024100001042000810f5600e0ff3a000d00e000ab
:1024200004003d000802be000a03be007e80570083
:10243000a3ff07005fa897000000e00005003a0036
:102440001fb29700afb297003fb39700cfb397008a
:10245000090007006fb09700ffb097000fb9970011
:102460009fb997004f06be004f05be004f04be0047
:102470000080fa00000006000100070000000600ce
:10248000a4b79f00b5b79f00c6b79f00d7b79f00fe
:10249000000006004f09de0082817100b3b79f0083
:1024a0004f01de008180400082807000a1b79f0054
:1024b0008fb097004f09de0000004000020070005e
:1024c00090b79f007fa897004f01de0081804000f9
:1024d0008280700081b79f000d0007004f3ade0038
:1024e0000000400004007000f0af9f0008000700eb
:1024f0000402420085824a0006034b0087834b009a
:10250000dfff07000802be000a03be00000006004d
:102510002fb29700bfb297004fb39700dfb3970079
:1025200000000600881f780018002000881f78002f
:1025300089ff07008f87e9004f047800000006003c
:10254000801feb0084ff07008f87e9000000060072
:10255000889fbe008a9fbe00e00f5000e08f5800a9
:10256000e00f5900e08f59000c003d006044b800b6
:102570006055b8000000540081805c0002015d00dd
:1025800083815d00180020001500070008003d0051
:10259000180007000004eb00050037000004eb0002
:1025a0000f00070002003d00120007001800200085
:1025b000dcff07000800e000060032006022b800df
:1025c0006033b8000000520081805a0002015b00b5
:1025d00083815b004f05be004f04be000000060073
:1025e000e00f5200e08f5a00e00f5b00e08f5b00cd
:1025f000000006006044b8006055b80004025400b2
:1026000085825c0006035d0087835d000000060094
:10261000889fbe008a9fbe008c1f7800e00f50008c
:10262000e08f5800e00f5900e08f59000d003d0089
:102630006044b8006055b8000000540081805c0020
:1026400002015d0083815d001c0020000820e10084
:1026500009a8e1000ab0e1000bb8e1000d003d005f
:10266000080037000006eb00e00f5200e08f5a0030
:10267000e00f5b00e08f5b0006003d006044b800a7
:102680006055b8000402540085825c0006035d00ba
:1026900087835d00aaff07000c00e00006003200ff
:1026a0006022b8006033b8000000520081805a00f8
:1026b00002015b0083815b004f0678004f05be007e
:0826c0004f04be0000000600fb
:020000040000fa
:1026c8005374000061720000742000004c43000045
:0c26d8004400000025630000000000002a
:020000040000fa
:1026e4000200fa00000f7800000328002008880088
:1026f4000021ef00000000009e007800e0032000ad
:102704000088b9000000780080007800000880008c
:10271400808f5000f8ff3e000080fa0000000600a1
:102724000200fa00000f7800000128002008880049
:102734000021ef00000000001e00780000004000af
:102744008000780000088000808f5000faff3e006f
:102754000080fa00000006000000fa003030280073
:1027640000308800f03f2000103088001000200066
:10277400603088000080fa00000006000000fa00c3
:1027840020022000c01188008000280080118800e9
:102794000040200090118800dfa2a800e1a2a80058
:1027a4000080fa00000006000200fa00004f7800e2
:1027b400000000000117800000002100008060007c
:1027c4000000e000fbff3a000000000091118000cf
:1027d40000202000008060000000e000fbff3a00c1
:1027e4001e00fb00a01188001e4078000080fa0043
:1027f400000006000000fa00e1a2a9000021ef0099
:102804000000000090118000610060000000e00002
:1028140004003a0001088000700c2000808f5000f2
:10282400f8ff360090118000610060000000e000b5
:1028340003003a00e1a2a800a0c0b30003003700df
:10284400e1a2a800b0118000004078000080fa00e6
:10285400000006000000fa000426ef0080032000b8
:1028640040308800100020009dff0700c0002000b9
:10287400403088001000200099ff0700100020005d
:10288400403088002000200095ff070060002000f1
:10289400403088002000200091ff07000080fa00eb
:1028a400000006000400fa00100798000000000071
:1028b4001130800000002800008060000000e0006b
:1028c400fbff3a001e00900020308800403080005a
:1028d400000f780000000000113080000000280084
:1028e400008060000000e000fbff3a004030800000
:1028f400004078000080fa00000006000400fa009e
:10290400000f780021479800000000000000eb0051
:10291400e4ff07000004e000fcff350000000000b5
:102924001130800000002800008060000000e000fa
:10293400fbff3a001e007800203088002e409000f3
:102944000000fb00403088000080fa000000060010
:102954000200fa00000f7800060037001e0078001d
:10296400104078001e0fe80080407800100020001e
:10297400e2ff07001e007800104078000004e00029
:10298400f6ff3a000080fa00000006000400fa0096
:10299400100798001e009000e10f500004003a0058
:1029a40001c8b3000000eb00d4ff07001600370095
:1029b4001e009000e20f500004003a0001ccb30066
:1029c4000000eb00cdff07000f003700c022ef002e
:1029d40010002000000f780008003700f00f2000de
:1029e40010168800400620003dff0700c222ef00b9
:1029f400400620003aff07001e0fe8001e00780082
:102a0400f30f5000f5ff34000080fa0000000600c8
:102a14000000fa00c222ef0000f02f000016880028
:102a24000080fa00000006000200fa00000f78009f
:102a34009e007800688060000000e0000100320021
:102a4400d2c2a8009e007800648060000000e0000c
:102a540001003200d2e2a8009e007800628060008b
:102a64000000e00001003200c0e2a8001e0078006f
:102a740061006000004078000004e00001003200c2
:102a8400d3a2a8000080fa00000006000400fa00a7
:102a940010079800f0002000e3ff07001e009000dc
:102aa400e20f50001d003200e20f500003003e0010
:102ab400e10f5000240032002d003700e40f5000d5
:102ac4000c003200e80f500029003a00a1168000e3
:102ad400000420000080600000f0a7000000ea006d
:102ae400000fe9001e0078004f00de00000f7800a0
:102af40021003700a116800000082000008060003b
:102b040000f0a7000000ea00000fe9001e007800b2
:102b14004f00de00000f780017003700c0e2a80065
:102b240011168000000820000080600000f0a7005b
:102b34000000ea00000fe9001e0078004f00de00ec
:102b4400000f78000c003700a1168000000022005e
:102b54000080600000f0a7000000ea00000fe90018
:102b64001e0078004f00de00000f780002003700de
:102b74000000eb00000f78001e0078000080fa00cf
:102b8400000006000200fa00000f7800c0e2a9006d
:102b9400f00f20001e006000101688000080fa006c
:102ba400000006002200fa000601070098ff070053
:102bb40000022000cafe0700e7fe070025ff070009
:102bc400eefe07001000200070ff070040362900c9
:102bd4005fff07000040eb006047980005ff070017
:102be400004f780040062000bdfe0700f0c5b3008a
:102bf4001e4068000080fb000000e9004f00de007a
:102c0400200798000000eb00100798002d00370003
:102c14002000200010168800f6fe0700004f780000
:102c2400800c2000aefe07002e0090000000e000a3
:102c34000e003a009e00fb00700028000080600037
:102c44000000e00004003d000000e90081ff2f00c7
:102c5400008070000000e800004078000000fb00e5
:102c64000070a00010168800160037001e009000a7
:102c74000000e800100798004000200010168800ab
:102c84009e00fb007f004700811f7800e136290089
:102c9400811f78001ef70700e4875700ff004700f4
:102ca40066004700fcf6070010002000101688009c
:102cb4007e589000bcfe0700401f200088fe0700dd
:102cc400c222ef001e4078000004e000d0ff3a006a
:102cd400100020002dff0700e60047001e009000b2
:102ce400008040008040eb00014878006600470007
:102cf40017ff0700401f200079fe0700d0c0b30073
:102d0400a9fe0700a0c0b300a7fe0700200320000f
:082d140073fe0700afff37005a
:020000040000fa
:102d1c00ac080000200000000000000000080000cb
:102d2c000200000002000000ffff0000cc080000c1
:102d3c001a00000002000000686a6c00747a4c00f3
:102d4c000000010000020000040008000010000058
:102d5c00000020002b2d2300300000000208000092
:102d6c00880000000200000001000000002808009c
:102d7c002908280008280800280828000818080036
:102d8c000000000000000000000000000000000037
:102d9c00000000000000000000000000000208001d
:102dac00010150000851080050085000085008005c
:102dbc005008400008000000000000000000000067
:102dcc0000000000000000000000000000000000f7
:102ddc000000020008020200780879000878080058
:102dec0078087800087808006808000000000000e7
:102dfc0000000000000000000000000000000000c7
:102e0c00000000000000000002082a000852080020
:102e1c0000000000000000000000000000000000a6
:102e2c008a0800002200000002000000303132004d
:102e3c0033343500363738003941420043444500bd
:102e4c004600300031323300343536003738390023
:102e5c00616263006465660000000000ea0800001f
:102e6c000200000000000000ec080000020000005e
:102e7c000200000004000000e6080000040000004e
:102e8c0000000000ee08000002000000020000003c
:102e9c0001000000f008000002000000000000002b
:042eac000000000022
:020000040000fa
:102eb0000000fa00c422ef00ca22ef00d022ef0087
:102ec000d622ef00dc22ef00e222ef00e822ef0042
:102ed000f06f2c00001688000080eb003016880090
:102ee000e0012700601688000080eb009016880043
:102ef000f03f2000c0168800f01f2300f016880065
:102f0000f03c2f00201788006820ef006a20ef00b7
:102f1000c026ef00c626ef00cc26ef00d226ef0039
:102f2000d826ef00de26ef00e426ef00000c20009c
:102f3000601988000080fa00000006000000fa0016
:102f400000102300203a88004827ef007027ef0088
:102f50007227ef007427ef00320020008007200066
:102f6000a10920003374200080497800814978004d
:102f7000824978000001eb00600420007105200008
:102f800023742000804978008149780082497800c4
:102f90000080fa00000006000200fa00000f78002e
:102fa0009e00780001408800ffff37000000fa0013
:102fb000c08a200080077800408c20000001880033
:102fc0000080fa00000006000000fa00b8ff0700c9
:102fd000daff0700020007000080fa000000060088
:0c2fe0000000fa000080fa00000006006b
:020000040000fa
:020000040002f8
:04aff8009dfb0000bd
:020000040000fa
:020000040002f8
:04affc007f3f000093
:00000001FF
